:020000040800F2
:1000000060060020190200082102000823020008EF
:10001000250200082702000829020008000000004D
:100020000000000000000000000000002B0200089B
:100030002D020008000000002F0200083102000815
:1000400033020008330200083302000833020008BC
:1000500033020008330200083302000833020008AC
:10006000330200083302000833020008330200089C
:10007000330200083302000833020008330200088C
:1000800033020008330200083302000800000000B9
:100090000000000000000000000000003302000823
:1000A000330200083302000833020008330200085C
:1000B000330200083302000833020008330200084C
:1000C000330200083302000833020008330200083C
:1000D0003302000833020008330200080000000069
:1000E0003302000833020008330200080000000059
:1000F00000000000000000000000000033020008C3
:100100000000000033020008330200083302000838
:1001100000000000000000000000000000000000DF
:1001200033020008330200083302000833020008DB
:100130003302000800000000000000000000000082
:100140000000000000000000000000003302000872
:1001500033020008330200083302000833020008AB
:100160003302000833020008000000000000000015
:10017000000000000000000000000000000000007F
:100180000000000033020008000000000000000032
:100190003302000800F002F800F02EF80AA090E800
:1001A000000C82448344AAF10107DA4501D100F032
:1001B00023F8AFF2090EBAE80F0013F0010F18BFD1
:1001C000FB1A43F0010318474805000058050000DA
:1001D0000023002400250026103A28BF78C1FBD850
:1001E000520728BF30C148BF0B6070471FB500F0F1
:1001F00081FA1FBD10B510BD00F031F81146FFF7B0
:10020000F5FF00F003FA00F04FF803B4FFF7F2FF38
:1002100003BC00F057F80000094880470948004730
:10022000FEE7FEE7FEE7FEE7FEE7FEE7FEE7FEE7A6
:10023000FEE7FEE704480549054A064B7047000003
:10024000B50300089501000860000020600600204A
:1002500060020020600200207047704770477546BA
:1002600000F02CF8AE4605006946534620F0070022
:10027000854618B020B5FFF7DDFFBDE820404FF000
:1002800000064FF000074FF000084FF0000B21F080
:100290000701AC46ACE8C009ACE8C009ACE8C0094D
:1002A000ACE8C0098D46704710B50446AFF3008036
:1002B0002046BDE81040FFF7A8BF00000048704787
:1002C0000000002001491820ABBEFEE72600020016
:1002D0007047000000B503461048006820F0030096
:1002E0000E49086018010E4948610C48006840F04A
:1002F00004000A490860002000F0D2F807480068AE
:1003000020F0040005490860042B03DA042000F003
:10031000C7F802E0012000F0C3F800BD1404024059
:100320000000024000B503461048006840F001009C
:100330000E4908600846006820F0020008601801B5
:100340000B4948610948006840F00400074908600B
:10035000002000F0A5F80548006820F004000349DB
:100360000860012000F09CF800BD00001404024069
:100370000000024000B51E2000F092F83020FFF788
:10038000A9FF0A2000F08CF83020FFF7A3FF01201E
:1003900000F086F83020FFF79DFF3820FFF79AFF26
:1003A0000620FFF797FF0120FFF794FF0F20FFF7CC
:1003B00091FF00BD0548006840F4700003490860E3
:1003C0004FF00060014980390860704788ED00E017
:1003D00000BF0549096801F020010029F9D0024950
:1003E000091D0968C8B2704700440040054908600B
:1003F00000BF0449091F096801F040010029F8D035
:1004000070470000044400402248006840F00100AA
:10041000204908601F481030006840F400301D4932
:10042000103108601C48006840F020001A4908603C
:100430000846006840F0800008600846806840F088
:10044000F00088600846006A40F4E06008620846F0
:10045000006A40F4E0400862002010490860084645
:10046000006840F4005008600846006820F480509E
:10047000086040F28360091F0860081D006840F0B2
:100480000400091D08600846006840F00800086084
:100490007047000030380240000002400C44004029
:1004A00007E0002100E0491C40F67B429142FADB64
:1004B000401E0028F5DC704705E0002100E0491CE3
:1004C0000829FCDB401E0028F7DC70470248006862
:1004D000012121EAD0007047100402400146392969
:1004E00001DC302903DA2A2901D0232901D1012096
:1004F00070470020FCE700003FB5424D27CD8DE856
:1005000027004148006840F470403F4908600846B1
:10051000006820F4704008600520FFF7CDFF3A48DE
:10052000001F006800F4E0643748006840F4704041
:1005300035490860B4F5E06F02D10A2004B030BD3F
:10054000002320E03048006840F470402E490860E5
:10055000084600685DF8231008432B4908600846E8
:1005600000685DF823108843274908600520FFF7DD
:10057000A3FF2548001F006800F4E064B4F5E06FB5
:1005800000D002E05B1C042BDCDB00BF1E480068CF
:1005900040F470401C490860C820FFF781FF042B1D
:1005A00001D10A20CAE7032B04D1B4F5C06F01D1F1
:1005B0002A20C3E7032B04D1B4F5A06F01D130206A
:1005C000BCE7032B04D1B4F5407F01D12320B5E76C
:1005D000B4F5407F04D103EB43003330C0B2ADE744
:1005E000B4F5A06F04D103EB43003230C0B2A5E7ED
:1005F000B4F5C06F04D103EB43003130C0B29DE7C6
:1006000000BF9BE7000700081404024000F048F810
:10061000FFF7B0FEFFF7F8FE00264FF004083DE0BC
:10062000FFF76AFF0546FFF751FF30B10120FFF7E2
:1006300051FE00267220FFF7D9FE0A2D2ED0284643
:10064000FFF7D4FEFFF7C4FE04462046FFF746FF3F
:1006500000B32A2C03D11020FFF73CFE1EE0232C10
:1006600010D1032E0ED10120FFF734FE002706E043
:10067000FFF7AEFE04462046FFF754FE7F1C4745B9
:100680000CDAF5E7232C06D1032E04DA761C0120C0
:10069000FFF720FE02E02046FFF744FEC0E700001F
:1006A0000F48006840F001000D49086008460068E6
:1006B00040F0020008600B4800680B4908430949F4
:1006C00008600A4800680A49084308490860044865
:1006D0001430006840F480400149143108607047CC
:1006E000303802400000024000555500000402402E
:1006F000150000554FF04070E1EE100A7047000001
:1007000000100000002000000040000000800000F9
:10071000200700080000002060060000D00100084B
:0400000508000219D4
:00000001FF
