:020000040800F2
:1000000060060020190200082102000823020008EF
:10001000250200082702000829020008000000004D
:100020000000000000000000000000002B0200089B
:100030002D020008000000002F0200083102000815
:1000400033020008330200083302000833020008BC
:1000500033020008330200083302000833020008AC
:10006000330200083302000833020008330200089C
:10007000330200083302000833020008330200088C
:1000800033020008330200083302000800000000B9
:100090000000000000000000000000003302000823
:1000A000330200083302000833020008330200085C
:1000B000330200083302000833020008330200084C
:1000C000330200083302000833020008330200083C
:1000D0003302000833020008330200080000000069
:1000E0003302000833020008330200080000000059
:1000F00000000000000000000000000033020008C3
:100100000000000033020008330200083302000838
:1001100000000000000000000000000000000000DF
:1001200033020008330200083302000833020008DB
:100130003302000800000000000000000000000082
:100140000000000000000000000000003302000872
:1001500033020008330200083302000833020008AB
:100160003302000833020008000000000000000015
:10017000000000000000000000000000000000007F
:100180000000000033020008000000000000000032
:100190003302000800F002F800F02EF80AA090E800
:1001A000000C82448344AAF10107DA4501D100F032
:1001B00023F8AFF2090EBAE80F0013F0010F18BFD1
:1001C000FB1A43F001031847601F0000701F000076
:1001D0000023002400250026103A28BF78C1FBD850
:1001E000520728BF30C148BF0B6070471FB501F0F0
:1001F000D3FE1FBD10B510BD00F044F81146FFF747
:10020000F5FF01F075F800F062F803B4FFF7F2FFB4
:1002100003BC00F065F80000094880470948004722
:10022000FEE7FEE7FEE7FEE7FEE7FEE7FEE7FEE7A6
:10023000FEE7FEE704480549054A064B7047000003
:10024000F10200089501000860000020600600200F
:10025000600200206002002070477047704710B5B0
:1002600000F008F8006810BD10B5044600F002F870
:10027000046010BD0048704700000020004870472F
:10028000000000207546FFF7F9FFAE4605006946FD
:10029000534620F00700854618B020B5FFF7CAFF87
:1002A000BDE820404FF000064FF000074FF0000877
:1002B0004FF0000B21F00701AC46ACE8C009ACE8F8
:1002C000C009ACE8C009ACE8C0098D46704710B55C
:1002D0000446AFF300802046BDE81040FFF795BF0D
:1002E00001491820ABBEFEE726000200704700005F
:1002F0000548006840F47000034908604FF0006052
:10030000014980390860704788ED00E000BF054969
:10031000096801F020010029F9D00249091D096886
:10032000C8B27047004400400549086000BF044956
:10033000091F096801F040010029F8D0704700004A
:10034000044400402DE9F0412DED088B05460126BF
:100350000A2003E0761C00EB80014800A842F9DD8A
:1003600034462BE0601E01F0CEFA41EC1B0BB0EEE0
:100370004B1AF0EE6B1A9FED140B00F08DF8B0EEF7
:10038000409AF0EE609A284601F0BDFA41EC1A0B53
:1003900053EC192B01F030F941EC180B01F084FA01
:1003A0000A2190FBF1F201FB12003030C7B238464F
:1003B000FFF7BAFF052000F074FF641E012CD1DAAC
:1003C000BDEC088BBDE8F081000000000000244077
:1003D0002248006840F00100204908601F481030A2
:1003E000006840F400301D49103108601C48006866
:1003F00040F020001A4908600846006840F080007C
:1004000008600846806840F0F00088600846006A8E
:1004100040F4E06008620846006A40F4E040086288
:100420000020104908600846006840F40050086049
:100430000846006820F48050086040F28360091F7D
:100440000860081D006840F00400091D08600846A7
:10045000006840F008000860704700003038024033
:10046000000002400C44004003B401984100009891
:1004700050EAC12018BF04204A0D18BF40F0010007
:1004800040F2FF72B2EB515F08BF40F0020001285A
:1004900008BF052002B070472DE9F04D2DED040B8B
:1004A0002DED0E8B96B0DDE92550279CDDF890A050
:1004B00025F0004624F00048BAF1000F14BF0121D6
:1004C000002101EB4502FC4953184A1093422AD3FC
:1004D000002814BF0123002303EB44030B44F74916
:1004E0008B4220D358EA00019FEDF59B76D0DFF8D0
:1004F000D8B35D4503D1BAF1000F05D188E0BAF158
:10050000000F08BF002100D0012101EB450111F5CA
:10051000001F08D8002814BF0121002101EB44016D
:1005200011F5001F0BD99DED261B9DED240B16B078
:10053000BDEC0E8B04B0BDE8F04D00F069BE0027A5
:10054000002DBCBFE149884521DAE1498845A8BFB3
:1005500002271CDAC3451ADCDE4901EB28511429B5
:1005600008DDC1F1340220FA02F101FA02F28242FE
:100570000DD108E058B9C1F1140228FA02F101FACC
:1005800002F2424503D101F00101C1F1020756EA2E
:100590000A0124D1002C22DA002D18BF022F01D02D
:1005A000012F0AD00220FFF75FFE16B0BDEC0E8BC4
:1005B00004B0BDE8F04D00F013BE0220FFF754FE7A
:1005C00000F00EFE51EC100B00F04EFF41EC100B52
:1005D00016B0BDEC0E8B04B0BDE8F08D18E09FEDB9
:1005E000BEAB9FEDBF8B002871D1B848804522D1AA
:1005F00005F1804010F5801008BFBAF1000F07D058
:10060000B3450ADC002CA8BF9DED260BE0DA0DE017
:10061000B0EE490AF0EE690ADAE7002C06DA9DED41
:10062000260B51EC100B00F01FFF6FE0AE48784432
:1006300090ED000BCCE7D8454DD1002C48DA2EB117
:1006400086423AD1BAF1000F42D126E0BAF1000F4A
:1006500013D00220FFF708FE00F0F6FD8DED020B2F
:100660009DED240B8DED000B10EE900A039961F3C4
:100670001E0003909DED020BAAE78DED02AB9DEDF0
:10068000240B1AEE901A10EE900A8DED000B61F318
:100690001E0003909DED020B9AE78DED028B9DED00
:1006A000240B18EE901A10EE900A8DED000B61F3FA
:1006B0001E0003909DED020B8AE709DA9DED240BE5
:1006C00051EC190B53EC102B00F096FF1EE020E0CC
:1006D0009DED240B7CE786421BDAB4F1804F0DD0F0
:1006E000A4F10050B0F1FF5013D1002D11DB9DEDAE
:1006F000240B51EC100B00F06DFE07E09DED240B78
:1007000053EC102B51EC100B00F0C2BC41EC100B61
:100710005EE79DED240B51EC100B00F0CEFDBAF11D
:10072000000FCDE90E0142D19FED710B46B3A6F14A
:10073000E040B0F17F600CD05E4538D1002D00DA8A
:10074000A7B3022F0CBF01204FF0FF3001F0DBF800
:10075000DCE7002D01DD002C0DDA002D01DD002C81
:100760001FDB002D16DA002C14DB012F08BF9FEDD4
:10077000620B3FF42DAFB0EE4A0AF0EE6A0A27E7AB
:10078000022F18BF002D0CD0012F0AD1002DFFF62B
:100790001FAF06E0002DB8BF002C08DA012F3FF490
:1007A00017AFB0EE480AF0EE680A11E71BE001202F
:1007B00000EBE57050EA070115D0791EB0EE498ACA
:1007C000F0EE698A084308BF9FED4D8B4E48002527
:1007D000804570DD4D494E48884514DDB0420DDB43
:1007E000002C19DB2FE00120FFF73EFD16B0BDEC19
:1007F0000E8B04B0BDE8F04D00F016BDB34502DC31
:10080000002C09DC1FE0864202DA002C1BDA03E030
:100810005E452BDD002C16DD0220FFF725FD00F0E4
:1008200013FD8DED020B53EC1A2B51EC180B01F05C
:10083000BDF8CDE900010399019861F31E00039012
:100840009DED020BC4E60220FFF70EFD00F00CFD4B
:1008500010EE901A18EE900A8DED020B8DED008BC4
:1008600061F31E0003909DED020BB1E69DED0E0BB2
:1008700053EC192B51EC100B01F0A4FA9FED260B51
:10088000CDE9080153EC102B9DED080B51EC100B3A
:1008900001F08CF89FED221B53EC112B01F0BAF9FB
:1008A0009DED081B53EC112B01F080F89FED1E1BF2
:1008B00053EC112B3CE08CE0FFFF1F00FFFF0F000B
:1008C000000000000000F03F0000F03F0000F07F5B
:1008D0000000404301FCFFFF000000000000F07F2B
:1008E0000000000000000000EE1A00000000000000
:1008F0000000000000000080000000000000F0FF89
:10090000000000000000F0BF0000E0410000F043E4
:10091000FFFFEF3F00000000000000000000D03F9C
:10092000555555555555D53F000000000000E03F96
:1009300001F070F99DED080B41EC1A0B53EC102BF4
:1009400051EC100B01F032F853EC1A2B01F02EF899
:1009500041EC1A0B9FEDFE0B53EC102B9DED080B99
:1009600051EC100B01F022F841EC1B0B9FEDFA0B40
:1009700051EC1A0B53EC102B01F018F841EC1A0B48
:100980009FEDF70B53EC102B9DED080B51EC100B6A
:1009900001F00CF853EC1A2B01F014FA41EC1A0B8D
:1009A00051EC1B0B53EC1A2B00F06AFD0690CDE9BD
:1009B00006519DED060B53EC1B2B51EC100B01F077
:1009C00001FA53EC1A2B01F025F941EC100B00F061
:1009D000A1B90020B6F5801F0EDA9FEDE30B53ECB2
:1009E000102B9DED0E0B51EC100B00F0DFFFCDE94D
:1009F0000E016FF034000E4600EB2650A0F2FF37D8
:100A0000C6F31300DA4940F07F6646F0405688424C
:100A1000D8BF002408DDD7498142C8BF012403DCC8
:100A20000024A6F580167F1CD348784400EBC40050
:100A30000F9690ED00CB9DED0E0B53EC1C2B51EC63
:100A4000100B01F0BFF99DED0E0B41EC1B0B53ECAD
:100A50001C2B51EC100B00F013FD41EC100B51EC72
:100A6000190B53EC102B00F0C7FD41EC1D0B51ECA2
:100A70001B0B53EC1D2B00F099FF41EC1A0BBF48E8
:100A80008DED10AB7844109590ED000B4FF00050B9
:100A900040EA660000EB84408DED080B00F5002075
:100AA00009909DED080B53EC1C2B51EC100B01F041
:100AB00089F99DED0E1B53EC112B01F0ABF841ECC5
:100AC000100B53EC102B9DED100B51EC100B00F0A4
:100AD0006DFF9DED080B41EC1C0B53EC102B9DEDB5
:100AE000100B51EC100B00F061FF53EC1B2B01F0CD
:100AF00091F853EC1C2B01F065F953EC1D2B00F021
:100B000055FF41EC1C0B53EC1A2B51EC1A0B00F067
:100B10004DFF41EC1B0B9A480621B0EE4B0AF0EE5C
:100B20006B0A784400F0E0FAB0EE401AF0EE601A7A
:100B3000B0EE41DAF0EE61DA53EC1B2B51EC1B0BFB
:100B400000F034FF53EC1D2B00F030FF9DED100B37
:100B500041EC1B0B53EC1A2B51EC100B00F090FCEA
:100B600053EC1C2B00F022FF53EC1B2B00F088FCF5
:100B70009DED100B41EC1B0B53EC102B51EC100BAB
:100B800000F014FF41EC1D0B9FED7FEB53EC1E2B8F
:100B900000F076FC53EC1B2B00F072FC0890CDE9C2
:100BA00008519DED080B53EC1E2B51EC100B01F07E
:100BB00009F953EC1D2B01F005F953EC1B2B01F047
:100BC00029F89DED080B41EC1D0B53EC102B9DED0E
:100BD000100B51EC100B00F0E9FE41EC1B0B53EC39
:100BE0001A2B51EC1D0B00F0E1FE9DED080B41ECC2
:100BF0001A0B53EC102B51EC1C0B00F0D7FE53ECEE
:100C00001A2B00F03DFC41EC1A0B51EC1B0B53EC82
:100C10001A2B00F035FC0C90CDE90C519DED0C0B1E
:100C200053EC1B2B51EC100B01F0CCF853EC1A2BAE
:100C300000F0F0FF41EC1B0B9FED550B53EC102B1C
:100C40009DED0C0B51EC100B00F0B0FE41EC1A0BBB
:100C50009FED510B51EC1B0B53EC102B00F0A6FE3B
:100C600041EC1B0B9FED4E0B53EC102B9DED0C0B31
:100C700051EC100B00F09AFE53EC1B2B00F000FC23
:100C800041EC100B4848784400EBC40090ED001B89
:100C900051EC100B53EC112B00F0F2FB41EC1B0B51
:100CA000384600F030FECDE9080153EC1B2B51EC27
:100CB0001A0B00F0E5FB41EC100B3C48784400EBCC
:100CC000C40090ED00CB51EC100B53EC1C2B00F04A
:100CD000D7FB9DED081B53EC112B00F0D1FB0690C8
:100CE000CDE906519DED080B53EC102B9DED060B45
:100CF00051EC100B01F066F853EC1C2B01F062F87C
:100D000053EC1A2B01F05EF853EC1B2B00F082FF22
:100D100041EC100B9DED261B53EC102B8DED001BB1
:100D200000959DED260B51EC100B00F03FFE9DED64
:100D3000000B41EC1A0B53EC102B9DED260B51ECE4
:100D4000100B01F03FF89DED061B53EC112B2FE02B
:100D5000000000604715F73FFE822B654715F73FFF
:100D600044DF5DF80BAE543E00000000000040433D
:100D70008E9803007AB60B006A16000098160000E1
:100D8000A215000000000000000000000000084064
:100D9000000000E009C7EE3FFD033ADC09C7EE3F63
:100DA000F5015B14E02F3EBE2E140000E813000096
:100DB00000F0FCFD53EC1A2B00F062FB9DED060BDE
:100DC00041EC1A0B53EC102B9DED000B51EC100B6A
:100DD00000F0ECFDCDE90C019DED0C0B51EC1A0B74
:100DE00053EC102B00F04CFBCDE902010C46AA4954
:100DF0008C422FDB611A084318D19DED0C0B53EC8C
:100E0000102B9DED020B51EC100B00F0DBFF41ECC1
:100E10001B0B9FEDA30B51EC1A0B53EC102B00F0A6
:100E20002FFB53EC1B2B00F0BFFE2DD20220FFF74F
:100E30001BFA00F009FA10EE901A18EE900A8DEDE8
:100E4000020B8DED008B61F31E0003909DED020BF4
:100E5000FFF7BEBB944A24F00041914214D393495A
:100E6000214408437FF4EFAC9DED0C0B53EC102BA9
:100E70009DED020B51EC100B00F0A4FF53EC1A2B6C
:100E800000F092FE7FF6DFAC24F000408849894AEA
:100E9000002601EB205182422BDA481C4FF48011CE
:100EA00021FA00F02044844AC0F30A517A44A1F2A6
:100EB000FF3192ED000B814A8DED080BCA4020EA0C
:100EC0000202C0F3130040F48010C1F1140120FAB3
:100ED00001F60992002CB8BF76429DED080B53EC49
:100EE000102B9DED0C0B51EC100B00F06BFFCDE9BE
:100EF0000C019DED0C0B51EC1A0B53EC102B00F078
:100F0000BFFA9FED6F0B0890CDE9085153EC102B01
:100F10009DED080B51EC100B00F048FD41EC1B0B54
:100F20009FED690B53EC102B9DED080B51EC100B52
:100F300000F03CFD9DED0C0B41EC1C0B53EC102B19
:100F40009DED080B51EC100B00F03CFF53EC1A2BFD
:100F500000F060FE9FED5E1B53EC112B00F026FDB0
:100F600053EC1C2B00F08CFA41EC1A0B51EC1B0BD0
:100F700053EC1A2B00F084FACDE902019DED020B2F
:100F800053EC1B2B51EC100B00F01CFF53EC1A2BF5
:100F900000F040FE9DED020B41EC1A0B53EC102BC0
:100FA00051EC100B00F002FDCDE908014A489DED1F
:100FB000080B0521784400F097F89DED081B51ECD3
:100FC000100B53EC112B00F0F1FC9DED021B53ECC8
:100FD000112B00F01FFECDE906019DED020B53EC35
:100FE0001A2B51EC100B00F0E1FC53EC1A2B00F023
:100FF00047FA9FED3B0B41EC1A0B53EC102B9DED88
:10100000060B51EC100B00F0DDFE9DED060B41ECE4
:101010001B0B53EC102B9DED020B51EC100B00F051
:10102000C5FC53EC1B2B00F0E7FA53EC1A2B00F035
:10103000C9FE9DED021B53EC112B00F0C3FE53ECD7
:10104000192B00F0E7FDCDE9020101EB0650011577
:101050000029C8BF039015DC9DED020B324651EC10
:10106000100B00F0D0FFFFF7FFF9042808BF00F0D5
:10107000FBF832469DED020B51EC100B00F0C3FF64
:10108000CDE902019DED020B51EC180B53EC102B36
:1010900000F08CFCFFF73ABB00009040000000001D
:1010A000FE822B654715973C00CC904000346F3F83
:1010B00001FCFFFF0000E03F70120000FFFF0F0087
:1010C00000000000432EE63F396CA80C615C20BE96
:1010D000EF39FAFE422EE63F40110000000000000A
:1010E000000000000000004070B504462DED028BAA
:1010F0004D1E00EBC500B0EE408AF0EE608A90ED28
:10110000000B35F0060017D053EC182B51EC100BE8
:1011100000F04CFC41EC100B6D1E04EBC50090ED93
:10112000001B51EC100B53EC112B00F0A9F941EC12
:10113000100B35F00600E7D1022D36D0042D1CD05F
:10114000062D1CBFBDEC028B70BD53EC182B51EC6F
:10115000100B00F02BFC94ED0A1B53EC112B00F04C
:101160008FF953EC182B00F021FC94ED081B53EC85
:10117000112B00F085F941EC100B53EC182B51ECBE
:10118000100B00F013FC94ED061B53EC112B00F038
:1011900077F953EC182B00F009FC94ED040B53EC99
:1011A000102B00F06DF941EC100B53EC182B51ECA7
:1011B000100B00F0FBFB94ED021B53EC112B00F025
:1011C0005FF953EC182B00F0F1FB94ED001B53EC8E
:1011D000112B00F055F9BDEC028B41EC100B70BDEA
:1011E0009FED070B10B553EC102B9FED070B51EC47
:1011F000100B00F001FA41EC100B10BD00000000D4
:101200000000000000000000000000000000F03FAF
:1012100010B553EC112B51EC100B00F031F941ECEF
:10122000100B10BD000000009FED050B10B553EC36
:10123000102B51EC100B00F0DFF941EC100B10BD3E
:1012400000000000000000009FED050B10B553ECFE
:10125000102B51EC100B00F0A9FB41EC100B10BD52
:1012600000000000000000709FED050B10B553EC6E
:10127000102B51EC100B00F099FB41EC100B10BD42
:1012800000000000000000100246086850434B6850
:101290005B0003FB02008B6803EB430303FB0200CC
:1012A000704707E0002100E0491C40F67B42914274
:1012B000FADB401E0028F5DC704782B0CDE9000162
:1012C00021F0004001909DED000B02B051EC100B9D
:1012D00070470146392901DC302905DA2A2903D073
:1012E000232901D0722901D1012070470020FCE799
:1012F0000EB500F055F8FFF76BF800200090019054
:1013000002900025002649E0FFF700F8044600207F
:1013100000F098F83220FFF7C4FF012000F092F8A7
:101320006420FFF7BEFF2046FFF7D3FF002835D02B
:10133000722C01D1002600252A2C05D10A2096FB0B
:10134000F0F62046FEF7F0FF232C0CD0722C0AD0CA
:101350002A2C08D0A4F1300006EB860100EB4106F0
:101360002046FEF7E1FF232C0DD1032D0BD12046A3
:10137000FEF7DAFF374669463846FFF785FF8046B5
:10138000FEF7E0FF0026232C08D1032D06DA2046C5
:10139000FEF7CAFF4DF8256000266D1CB4E700007B
:1013A0000A48006840F002000849086008480068E0
:1013B00040F001000649086004481430006840F419
:1013C0008040024914310860704700003038024004
:1013D0000004024000B52DED048B83B041EC190BE5
:1013E00000F024FC41EC180B18EE100A18EE901ACD
:1013F0008DED008B002818BF0120084320F000402D
:10140000C0F17F6000F1E040C00F14D019EE101A57
:1014100019EE900A8DED009B002918BF01210843A9
:1014200020F00040C0F17F6000F1E040C00F04BF39
:101430000120FEF719FF51EC180B03B0BDEC048B33
:1014400000BD000030B90749096841F00101054AB3
:10145000116006E0012804D1024909680021014A0F
:10146000116070471404024081F00041704780F021
:101470000040704721F00041704720F00040704765
:1014800010B591EA030F48BF83F0004300F1A28436
:10149000841A71EB030C05D2121943EB0C03001BE9
:1014A00061EB0C01DFF824E14FEA1154A4EB135C6B
:1014B0001EEA430F18BF9EEA445F73D023EA0E036F
:1014C000DCF1200E21EA045143F4801332D322FAD6
:1014D0000CFE10EB0E0023FA0CFE41EB0E01CCF1DA
:1014E000200E03FA0EFE10EB0E0051F10001B1F5D3
:1014F000801FCCF1200E32D201EB045112FA0EF211
:10150000BDE8104058BF7047401C38BF5FEA420238
:1015100018BF7047002814BF20F0010041F10001FE
:101520004FEA410313F5001F38BF7047A1F1C041D6
:1015300000F034BB012A43EB0302ACF1200CDCF1D8
:101540001F0E32BF4FF0000E23FA0CF310EB030016
:1015500041EB0451B4EB115FD0D0A1EB045101F584
:10156000801149085FEA300001EB04510ED350F1BD
:10157000000038BF12FA0EFE08D1BDE81040C9E7DE
:10158000401C38BF5FEA4202CAD1C3E7BDE8104041
:101590004FEA410313F5001F38BF7047A1F1C04166
:1015A00000F0FCBA9EEA445F08D011EA5E0FBDE885
:1015B000104004BF01F0004100207047BDE810401A
:1015C00070B500F09DFA00BF64FBBE3E0000E0FF76
:1015D00002494FF0000000F0E4BC00BF0000F87FBB
:1015E000491058BFC1F140415B1058BFC3F140439F
:1015F0008B42EFF3008070472DE9C04130B4DFF833
:10160000A0C23CEA111418BF3CEA131400F0EC80AD
:1016100081EA03051CEA111444EAD57418BF1CEAD8
:10162000131500F0C780A4EB05044FF0004545EA10
:10163000C12145EAC32341EA505143EA525304F120
:101640007F74994204F500344FEAC0204FEAC22269
:1016500008BF904200F09C804FEA13650FF24016DD
:10166000765D4FEA134506FB05F7C7F1807706FB69
:1016700007F74FEAD737A7FB03687642C8F58038EB
:10168000A7FB06CE38BFA8F1010807FB08E64FF01C
:10169000000EA6FB028CE6FB03CEDCF1000CCEF1C3
:1016A000004E38BFAEF1010EA6FB0C584FF00007FC
:1016B0004FF00005E6FB0E87A1FB08C6A0FB07CE96
:1016C00016EB0E0645F10005E1FB076515F1E04E4E
:1016D0007EBFA4F580345FEA46066D4116F18007AF
:1016E00045F100054FEA17274FEA066647EA056706
:1016F000A6F1DE46B6F1805F4FEA15251FD93846C0
:1017000024F0010C05EBC471BCF1FE6F01EB0C1170
:1017100002D8F0BCBDE8008124425CBF01F5801E08
:101720009EEAC47F02D4F0BCBDE80081244238D4D4
:10173000F0BCA1F1C041BDE8004100F02FBA4FEA72
:10174000D22242EA43524FEAD323A7FB02864FEA52
:10175000D02040EA415007FB03661EEA0E0F4FEA15
:10176000D12105FB026658BFA6EB0056B6EB00562A
:101770004FEA520E4EEAC37E18EB0E0E56EB530E96
:10178000BDD518EB02085E417F1C55F10005B6E798
:101790004FF480154FF000074FF000064FF000089F
:1017A000ADE7F0BC4FF0000001F1C04101F0004195
:1017B000BDE8008111EA0C1F0CEA131500D00CE003
:1017C00013EA0C1F00F025804FF00000F0BC81EA06
:1017D000030101F00041BDE80081F0BCBDE800411B
:1017E00081EA030100F0DAB9F0BCBDE8004170B550
:1017F00000F086F9097EFC3E00F007B881EA03019B
:101800004FF0000001F00041704781EA030100F051
:10181000C5B9F0BCBDE800414FF000002149704758
:10182000FFFDFBF9F7F5F4F2F0EEEDEBE9E8E6E4A5
:10183000E3E1E0DEDDDBDAD8D7D5D4D3D1D0CFCD2C
:10184000CCCBCAC8C7C6C5C4C2C1C0BFBEBDBCBB65
:10185000BAB9B8B7B6B5B4B3B2B1B0AFAEADACAB60
:10186000AAA9A8A8A7A6A5A4A3A3A2A1A09F9F9E3A
:101870009D9C9C9B9A9999989797969595949393EC
:10188000929191908F8F8E8E8D8C8C8B8B8A898983
:101890008888878786858584848383828281818006
:1018A0000000FF070000F87F4FEA41034FEA53535F
:1018B000A3F58063D3F11E03C8BFD3F1210C0CDD67
:1018C0004FF0004242EAC12242EA505232FA03FC8F
:1018D0008CEAE17CACEBE1707047102BC4BF0020B8
:1018E000704703F5787CBCF1FF3F04D06FF00042F5
:1018F00082EA2100704770B500F002F94992248015
:1019000000207047F2E710F0004248BF4042B0FAB2
:1019100080F310FA03F10AD0C3F11D0303F58063CD
:101920004FEA415002EB035202EBD12170474FF0D6
:101930000000704751EA030C17D41CF5801F58BFF4
:10194000BCF5801F00F10680994218BF704708BFA0
:101950009042704707D711F5801F58BF13F5801FBD
:1019600019D499427047894270471CF5801F08D5E9
:10197000BCF5801FF7D58B4218BF704708BF824265
:1019800070474FF4001C1CEB410F38BF1CEB430F9A
:1019900001D28B42704770B500F0B2F89224490032
:1019A0004FF000514FF08053FFF71ABEDFF848C1E7
:1019B00070B51CEA111E1EBF1CEA13159EEA0C0F1F
:1019C00095EA0C0F00F06F8081EA030423EA4C13C0
:1019D0004EEAD47E21EA4C1141F4801143F4801385
:1019E000AE44A1FB024CA0FB0365AEF17F7E36192D
:1019F00055EB0C05A1FB034C4CF10003A0FB021CB2
:101A000016EB0C06654153F10003094218BF46F07E
:101A1000010613F4007F0BD14FEA03314FEA053082
:101A2000340341EA155140EA16506FF003020AE010
:101A30004FEAC3214FEAC520F40241EA555140EA7A
:101A400056506FF0020202EB2E4201EB025585EA7E
:101A5000CE710AD05FEA440C18BF24F0004450F164
:101A6000000041F1000120EAD47040F2FE7C6245A2
:101A700000D270BDA84214BF4FF080444FF04044E4
:101A8000002E08BF0024BEF1806FA8BFA1F1C041A5
:101A9000BDE8704080F282804FF0000001F1C0414B
:101AA00001F0004170479EEA0C0F0CEA131518BFB5
:101AB00095EA0C0F06D04FF0000081EA030E0EF0FD
:101AC000004170BD00F01CF88900013E00F007B82D
:101AD00000F009B84FEA430C5FEA5C5C08D081EA89
:101AE000030100F05BB84FEA410C5FEA5C5CF6D1A1
:101AF0004FF00000014970470000FF070000F87F29
:101B00000EF1020E2EF0030E5EF8046B364205D481
:101B1000012A43EB030515F5001F12D8012841EBFC
:101B2000010C1CF5001F0CD80ED14FEAD17C15F525
:101B3000001F0CEB4C0C0CF1020C08BF4CEBD37CDF
:101B400004E04FF0080C01E04FEAD37C0CEB4C05AD
:101B500026FA05F606F00706B6F1040C06D20EEBDF
:101B6000860CBDE870404CF0010C6047DFE80CF0DB
:101B7000090B02024FF000414FF00000A1F50021D7
:101B800070BD19461046012851EB010418BFD4F569
:101B9000001484BF002001F0004170BD0808A0F5CA
:101BA00000114FEA3101704753EA010C17D41CF5BC
:101BB000801F58BFBCF5801F00F106808B4218BF04
:101BC000704708BF8242704707D713F5801F58BF80
:101BD00011F5801F19D48B4270479B4270471CF54A
:101BE000801F08D5BCF5801FF7D5994218BF7047F4
:101BF00008BF904270474FF4001C1CEB430F38BFE6
:101C00001CEB410F01D2994270470FB40CBC03BCCE
:101C1000FFF7C1BE91EA030F10B581F000413FF517
:101C200037AC83F0004300F0D5B800002DE9F04157
:101C300001F5801CBCF5001FC0F2A9804FEA115CC1
:101C400021EA0C510CF1FD0C41F480115FEA5C0CAF
:101C50000CF5C07C01D34000494130A4890241EA1F
:101C6000905187028E0E0A0CA45D04FB04F602FB61
:101C700006F6C6F14046A4FB0662F60D46EA422689
:101C800006FB06F4A4FB01235242C3F1404338BFD4
:101C90005B1EA6FB02420024E6FB0324D20B42EAB1
:101CA0004446A6FB0623A1FB02E2A3FB07E4E3FBF9
:101CB00061426442C2F1404E38BFAEF1010EA6FB54
:101CC00004234FF00002E6FB0E32A2FB0346340071
:101CD000E2FB6264A1FB06E6A4FB07E8E4FB6168A3
:101CE0007642C8F1405838BFA8F10108A2FB06E4CB
:101CF000A3FB08E5E2FB6854A1FB05E6A7FB04E8AB
:101D0000E1FB648618F1200556F10006A809A8F148
:101D10001B08B10908F03F08B8F10A0F40EA8660D5
:101D20001CD901EB0C51BDE8F08100BFFCF5EEE8D9
:101D3000E2DDD8D3CFCBC7C3C0BDB9B6B4B1AEAC6A
:101D4000A9A7A5A3A19F9D9B9A9896959392908FE2
:101D50008D8C8B898887868584838281A0FB00682F
:101D600000FB01F208EB4208B8EB872807D53418CE
:101D700058EB0104D5D5401C51F10001D1E7341ACC
:101D800078EB0104CDD4401E71F10001C9E75FEA90
:101D90004C0C5FEA9C5C0DD105D34FF0000001F0C4
:101DA0000041BDE8F081BDE8F04170B5FFF7A8FE45
:101DB0006DDBFFBEBDE8F0414FF000000049704709
:101DC0000000F87F10B591EA030F48BF83F000438D
:101DD0003FF55EAB841A71EB030C07D212198CF03D
:101DE000004C43EB0C03001B61EB0C01DFF8A4E19A
:101DF0004FEA1154A4EB135C1EEA430F18BF9EEA8E
:101E0000445F00F0B08023EA6E03524221EA04519D
:101E1000C3EB6E0338BF5B1EDCF1200E25D322FA24
:101E20000CFE10EB0E0043FA0CFE41EB0E01CCF160
:101E3000200E03FA0EFE10EB0E0051F10001CCF162
:101E4000200E29D412FA0EF201EB0451BDE8104025
:101E500058BF7047401C1CBFB2F1004F70470028AC
:101E60000CBF491C20F00100704712EB020E43EB3F
:101E7000030218BF4FF0010E4EEA4202ACF1200CF3
:101E8000DCF11E0E54D943FA0CFE10EB0E0051F19A
:101E9000FF31CCF11E0ED5D50EF1010E12FA0EFE59
:101EA000404141EB010101EB445C5FEA5C5C10D90D
:101EB00010EBDE7001EB045138BFBEF1004FBDE8FE
:101EC000104018BF704700280CBF491C20F00100CB
:101ED000704730D24FEAD42C11F5001124F400647D
:101EE0001BD0B1FA81F20B3AA41AA41ED2F120033E
:101EF000914030FA03F31943904001EBCC71002C70
:101F000001EB0451BDE81040A8BF704701F1C0418A
:101F10004FF0000001F000417047B0FA80F310FA72
:101F200003F100D110BDE41A173C4805C90AE4E7E3
:101F300001EB045110BD491001EB0451BDE8104004
:101F40004FEA300002E04FF0000170474A0008BF3E
:101F50000042F8D0B2F5001F28BF704701F00041E1
:101F60004FF0000070479EEA445F07D011EA5E0F11
:101F7000BDE8104004BF002100207047BDE81040BC
:101F800070B5FFF7BDFD00BF40DFF63E83F00041B6
:101F9000104670470000E0FF4FF04070E1EE100A7D
:101FA00070470CF00F03092B08BF082000F0598080
:101FB0000A2B0BD0082B18BF704708BF1CF0400F2E
:101FC0000AD04FF000004FF0000170471CF0400FA6
:101FD00018BF4FF0004070471CF0100F08D020F0E1
:101FE000704300F07F4242EAD3014FEA43707047EA
:101FF00000F0604021F07F4242EA000201F07F40A1
:1020000040EA727070474FF0FF0C4CF4E06C1CEA31
:1020100011531CBF9CEA030C9445C2BFDA4201EB8A
:1020200002517047002B0DD0BCF1000F0FD0002AD9
:1020300001F00041A4BF41F0E04141F07F614FF069
:102040000000704701F000414FF00000704750EA77
:1020500001334FF09B0C18BF4CF0806C7FF4B8AA92
:1020600070471CF4801F11D01CF4E02F03D06FEADE
:10207000CC31490070474FF04050EFF3008222F01E
:10208000704242EA000282F3008870474FF000007D
:102090007047000000000000000000000000F03F5A
:1020A000000000000000F83F0000000000000000F9
:1020B0000000004003B8E23F000000000000000004
:1020C00006D0CF43EBFD4C3E033333333333E33F92
:1020D000FFAB6FDBB66DDB3F4D268F515555D53FBE
:1020E00001411DA96074D13F65DBC9934A86CD3F8C
:1020F000EF4E454A287ECA3F3E5555555555C53F7A
:1021000093BDBE166CC166BF2CDE25AF6A56113F6B
:10211000F16BD2C541BDBBBED0A4BE726937663E6D
:10212000000000000000000038210008000000202E
:0821300060060000D001000868
:0400000508000219D4
:00000001FF
