:020000040800F2
:1000000000060020950100089D0100089F010008DE
:10001000A1010008A3010008A501000800000000DC
:10002000000000000000000000000000A701000820
:10003000A901000800000000AB010008AD010008A4
:10004000AF010008AF010008AF010008AF010008D0
:10005000AF010008AF010008AF010008AF010008C0
:10006000AF010008AF010008AF010008AF010008B0
:10007000AF010008AF010008AF010008AF010008A0
:10008000AF010008AF010008AF0100080000000048
:10009000000000000000000000000000AF010008A8
:1000A000AF010008AF010008AF010008AF01000870
:1000B000AF010008AF010008AF010008AF01000860
:1000C000AF010008AF010008AF010008AF01000850
:1000D000AF010008AF010008AF01000800000000F8
:1000E000AF010008AF010008AF01000800000000E8
:1000F000000000000000000000000000AF01000848
:1001000000000000AF010008AF010008AF010008C7
:1001100000000000000000000000000000000000DF
:10012000AF010008AF010008AF010008AF010008EF
:10013000AF01000800000000000000000000000007
:10014000000000000000000000000000AF010008F7
:10015000AF010008AF010008AF010008AF010008BF
:10016000AF010008AF01000800000000000000001F
:10017000000000000000000000000000000000007F
:1001800000000000AF0100080000000000000000B7
:10019000AF0100080948804709480047FEE7FEE72D
:1001A000FEE7FEE7FEE7FEE7FEE7FEE7FEE7FEE727
:1001B00004480549054A064B70470000DD01000868
:1001C00003020008000000200006002000020020BA
:1001D0000002002070477047704700007B494FF0D5
:1001E000070008607A4908684FF05530086079497F
:1001F00008684FF055200860774908684FF05500AF
:1002000008604FF000067549086801464FF6F7721E
:1002100040EA0200904273D0714A4EF6FF731360B9
:100220006E4A106801464FF6FF6440EA0400A0429F
:100230004FF001006DD04FF6FF540B4643EA040324
:10024000A3424FF0020064D04FF6FF340D4645EA5A
:100250000405A5424FF003005BD0614A4DF6FF73E1
:1002600013605E4A106801464FF6FF6440EA0400DE
:10027000A0424FF004004CD04FF6FF540B4643EA27
:100280000403A3424FF0050043D04FF6FF340D4660
:1002900045EA0405A5424FF006003AD0504A4BF615
:1002A000FF7313604D4A106801464FF6FF6440EA41
:1002B0000400A0424FF007002BD04FF6FF540B462E
:1002C00043EA0403A3424FF0080022D04FF6FF3464
:1002D0000D4645EA0405A5424FF0090019D0404AF1
:1002E00047F6FF7313603D4A106801464FF6FF540E
:1002F0000B4643EA0403A3424FF0000009D082E713
:1003000038494FF0000008604FF000064FF000073A
:1003100079E74FEA00303349086087423FF473AF12
:10032000012E03D04FF0010607466CE74FEA103666
:100330004FEA17354FF00C084FF0000A4FF0010B51
:100340004FF0000CAE4201DC4FF0010C23490B686A
:1003500019464FF6F77243EA02039342D0D0224C7B
:10036000002C02D0A4F10104FAE7BCF1010F0AD07D
:10037000B5422BDC05FA08F947EA090705F1010542
:10038000A8F1040809E0B54220DB05FA08F947EABC
:100390000907A5F10105A8F1040812490F601349E6
:1003A000C1F800B04FEA4B0BB8F1000FCEDCBAF148
:1003B000010F02D04FF0010AC8E74FF00C084FF0D0
:1003C00000074FF0000A4FF0010BBFE73038024042
:1003D00000000240000402400008024010040240F5
:1003E0001404024014000240FFFF3F0014080240C2
:040000050800019559
:00000001FF
